:0217410015157C
:0217430000267E
:0217450017008B
:03000B000205E407
:1005DF00C2AF80FE321205E385D00B75D008AAE0BA
:1005EF00C28CE58A24D4F58AE58C34F8F58CD28C4C
:1005FF00EC2415F8E6BC020274FFC39581B4140015
:10060F0040CE7903780E16E608700BC2AFE630E1E4
:10061F00034418F6D2AF08D9EDEA8BD0300001228F
:10062F00D50DFCC0E0C0D0C0F0C083C082C000C0F8
:10063F0001C002C003C004C005C006C007E50C23FB
:10064F00240FF87440C2AF46F6D2AFD200E50CFFCC
:10065F0023240FF80F0808BF03047F00780FE6303C
:10066F00E4F200E50CC39F5020050C7414250CF820
:10067F00E6FDA68108E6AE0CBE020274FFCDF8E8D7
:10068F006D60E008E6C0E080F6E50CD39F4027E5FB
:10069F000C2415F8E6AE0CBE020274FFFD18E6CD71
:1006AF00F8E5816D6006D0E0F61880F5E50C2414AE
:1006BF00C8F6150C80D3750D05E50C23240FF87FB4
:1006CF0004C2AFE610E61E30E00310E20C7F0030EC
:0506DF00E10730E30417
:1006E4007F0854F4547CC6D2AF54804207C200221F
:1006F400F6D2AFD007D006D005D004D003D002D0B4
:1007040001D000D082D083D0F0D0D0D0E0C200227B
:100714007814A68174026006FF0876FFDFFB7F036E
:10072400E4780EF608F608DFFA780F763090174171
:10073400740193C0E0E493C0E0750D05438901752D
:0D0744008ACD758CF8D28CD2AFD2A92202DA
:1015150012000E1216667FB07E011216801216CAD0
:10152500D2EF75A4FF75D3FF75D2F0D286E4F5D658
:10153500F5D57F3012160F8F3CC2827F01120751FD
:101545007F0212075175FFA5120AA37F011207DA60
:0215550080F61E
:10002600E4FBFAFD7F01120801053BE53B70020582
:100036003AC39454E53A94015004D28280E2C3E56F
:100046003B9468E53A94015004C28280D3C3E53BF1
:10005600947CE53A94015004D28280C4C3E53B9473
:1000660090E53A94015004C28280B5E4F53AF53B36
:0200760080AE5A
:0F17000075FFA5E4FBFA7D0A7F0212080180F154
:10169A00023A000001350002210100042300000083
:0716AA00000427000000000E
:0700030075FFFF75FF0722E6
:1016E00075D48475D784E4F5D3F5D2F5D6F5D52233
:0417470075D1032233
:07173A0075E10475E3402294
:10164C00E4FFFE75B1670FBF00010EBE0BF8BFB80B
:09165C00F5E5B130E7FB75B208B9
:011665002262
:04174B0075A88022DB
:10000E001200031216E012174712173A12164C027C
:02001E00174B7E
:10166600758E2075C83475CBFF75CAB885CBCD8508
:0A167600CACCD2CA759850D2AC223B
:1016F000C2AFC2AC8F993099FDC299D2ACD2AF22A1
:0614B5008B3E8A3F8940D6
:1014BB00853544E4F545AB41AA42A9431204CCFB64
:1014CB00FA7D0A7F02120801E5446535703BE5445D
:1014DB006037E4F545E545C39544501F7400254539
:1014EB00F582E43404F583E0AB3EAA3FA940854581
:1014FB00827583001204DE054580DAAB41AA42A94E
:09150B0043E5351204CCE4F5358A
:0115140022B4
:100AA300753D0375410075420075433D7B007A0037
:100AB30079361214B5E53D64027037E53664697022
:100AC3002C7F8212160FEF64637022AD377F3012D2
:100AD30016B2E4FBFA7D147F021208017F3012166E
:100AE3000F8F3C1216F07DFF7F821216B2E4F536AB
:100AF300F537E53D64017059E536B40109741025F5
:100B0300D5F5D5E4800DE536B4021874F025D5F596
:100B1300D574FF35D6F5D6AFD61216F0AFD512166B
:100B2300F08020E536B4631B7D637F821216B27FAB
:100B3300631216F07F701216F0E4FBFA7D147F0245
:100B4300120801E4F536753A01753B7C7F01020713
:100B5300DAE53D64036003020CE2F53DE5366537F3
:100B630065386003020CDBE536653C6008E536F466
:100B73006003020CDB753A01753B7C7F011207DAD7
:100B8300E5371205640C11200C30210C4F220BA702
:100B9300400BC9410BEB420C6E600C90610CB262CE
:100BA30000000CD81213CF120CE38E2F8F30AD3010
:100BB3007F201216B2E4FBFA7D147F02120801E5CE
:100BC3002FFD7F218042120F05120CE38E2D8F2EF5
:100BD300AD2E7F221216B2E4FBFA7D147F021208B7
:100BE30001E52DFD7F238020120860120CE38E2B7C
:100BF3008F2CAD2C7F241216B2E4FBFA7D147F02F6
:100C0300120801E52BFD7F251216B2020CDB7F21B2
:100C130012160FEF7F00FEC007C0067F2012160FCB
:100C2300EFFDD0E0F52FD0E04DF53080487F231263
:100C3300160FEF7F00FEC007C0067F2212160FEFCC
:100C4300FDD0E0F52DD0E04DF52E804B7F2512161B
:100C53000FEF7F00FEC007C0067F2412160FEFFDC3
:100C6300D0E0F52BD0E04DF52C804E1213CF120CB3
:100C7300E38E2F8F30AF3C1216F0E52FFF1216F0E4
:100C8300AF301216F0E52F653C65308042120F0538
:100C9300120CE38E2D8F2EAF3C1216F0E52DFF12B2
:100CA30016F0AF2E1216F0E52D653C652E8020124E
:100CB3000860120CE38E2B8F2CAF3C1216F0E52B41
:100CC300FF1216F0AF2C1216F0E52B653C652CFFD6
:0F0CD3001216F08003E4F53CE4F536F537F538FA
:010CE20022EF
:1016CA0075E80475D107E4F5BB75BC8043BC0475A5
:0616DA00BA0143E7022201
:10168000759102C3E49FFFE49EF5938F9274FFF57A
:0A16900095F59453E7FE4391042200
:03007B0002144725
:0B144700C0E0C0D075D000C006C00798
:10145200C2EDAFBEAEBFE48F2A8E29F528F527E58F
:1014620026252AF526E5253529F525E5243528F50D
:1014720024E5233527F523752A00752900752800F0
:10148200752700E522152270021521E522452170FB
:1014920019752101F5228526348525338524328567
:0A14A2002331F526F525F524F52386
:0914AC00D007D006D0D0D0E03208
:030023000215576C
:10155700C0E0C083C082C0D075D000C00730981EDD
:10156700C2ACC298E535C3940A5011AF350535743E
:10157700002FF582E43404F583E599F0D2ACD00767
:09158700D0D0D082D083D0E03234
:080CE3008F418E408D3F8C3ED5
:100CEB00C2AFE4FFFEFDFCAB41AA40A93FA83E12F8
:100CFB00031C6007400553427F8016434280AF417F
:100D0B00AE40AD3FAC3E12170F8F418E408D3F8CE6
:100D1B003EE4F544E544C39407502EC37407954451
:100D2B00FDE49400FCE412039A8F508E4F8D4E8C91
:100D3B004D7F007E007D007C40121192AB41AA409A
:100D4B00A93FA83E1201768033E54424F9FDE43433
:100D5B00FFFCE412039A8F508E4F8D4E8C4D7F000B
:100D6B007E007D007C40121192A804A905AA06AB57
:100D7B0007AF41AE40AD3FAC3E12027FE4FBFA79C8
:100D8B008078BF1200858F488E478D468C45E4FFD7
:100D9B00FEFDFCAB48AA47A946A84512031C602ED2
:100DAB00402CE4FFFE7D807C3FAB48AA47A946A8B8
:100DBB004512031C5018E544540F33333354F8FEDB
:100DCB00E5425487AD434EF542EDF543800C0544A7
:100DDB00E544C394105003020D1FAE42AF43EE1314
:100DEB001313540F7037FFFEFDFCAB48AA47A946FF
:100DFB00A84512031C6026E4F550F54F754EC075DF
:100E0B004D40FFFEFD7C40121192AB41AA40A93F21
:100E1B00A83E1201768F488E478D468C4575430050
:100E2B005342F8754401AC44E412039F8F508E4F2C
:100E3B008D4E8C4D7F007E007D007C40121192A860
:100E4B0004A905AA06AB07E4FFFE7D807C3F1202D6
:100E5B007FAB48AA47A946A84512031C5003020EB4
:100E6B00F2AF48AE47AD46AC45C004C005C006C0A6
:100E7B0007AC44E412039F8F508E4F8D4E8C4D7FE9
:100E8B00007E007D007C40121192A804A905AA06E1
:100E9B00AB07E4FFFE7D807C3F12027FA804A9050F
:100EAB00AA06AB07D007D006D005D0041200818F5D
:100EBB00488E478D468C45C3740B9544FF74017E59
:100ECB0000A807088005C333CE33CED8F9FFE5421F
:100EDB005407AD434EFEEF4DFFEE5407FEE5425473
:100EEB00F84EF542EFF5430544E544C3940C50032B
:090EFB00020E31D2AFAE42AF434A
:010F040022CA
:1013CF0075BC80E4F534F533F532F53175BB024366
:1013DF009104AF34AE33AD32AC31EC4D4E4F60F2C1
:1013EF00C2AF5391FBAF34AE33AD32AC31EC12031D
:1013FF00957B337A0379187845120176E4FBFA79F5
:10140F0080784512027FE4FBFA797A784412027FE2
:10141F00E4FBFA7980784312027F8F418E408D3F33
:10142F008C3E7FE17E7A7D947C3FAB41AA40A93F01
:07143F00A83E120176D2AFB6
:011446002283
:1008600075BC8043BC03E4F534F533F532F531F55E
:1008700041F540F53FF53EF5BB75D3FF75D2F075F8
:10088000D39275D2B0C286F546F54775D63E75D57A
:10089000C0E4FBFA7D017F02120801E4F534F53370
:1008A000F532F531439104AF34AE33AD32AC31ECB7
:1008B0004D4E4F60F2C2AFAE33AF347C017D0012BB
:1008C0000500AC06AD07E54725E0FFE54633FE74BD
:1008D000002FF58274003EF583ECF0A3EDF0539108
:1008E000FBD2AFE4FBFA7D017F02120801E4F5D6EA
:1008F000F5D5FBFA7D017F02120801E4F534F533EA
:10090000F532F531439104AF34AE33AD32AC31EC56
:100910004D4E4F60F2C2AFAE33AF347C017D00125A
:100920000500AC06AD07E54725E0FFE54633FE745C
:10093000002FF58274023EF583ECF0A3EDF05391A5
:10094000FBD2AFE4FBFA7D017F021208010547E507
:100950004770020546C3E54664809481500302084F
:100960008BD28675D3FF75D2F075460075478CAB78
:1009700041AA40A93FA83EC000C001C002C003E593
:100980004725E0FFE54633FE74002FF58274003EF4
:10099000F583E0FCA3E0FDEC12039A7B337A037944
:1009A000187845120176E4FBFAF9784512027FD0F7
:1009B00003D002D001D0001200858F418E408D3FC0
:1009C0008C3E0547E5477002054664C84546709F62
:1009D000E4FBFA79707842AF41AE40AD3FAC3E12D5
:1009E000027FE4FBFAF9784112027FE4FBFAF9781E
:1009F0004112027F8F458E448D438C42E4F541F5D0
:100A000040F53FF53EF54675478CAB41AA40A93FFE
:100A1000A83EC000C001C002C003E54725E0FFE5D5
:100A20004633FE74002FF58274023EF583E0FCA38A
:100A3000E0FDEC12039A7B337A03791878451201B2
:100A400076E4FBFAF9784512027FD003D002D00198
:100A5000D0001200858F418E408D3F8C3E0547E5CA
:100A6000477002054664C84546709FE4FBFA7970FA
:100A70007842AF41AE40AD3FAC3E12027FE4FBFA9C
:100A8000F9784112027FE4FBFAF9784112027FAB58
:100A900007AA06A905A804AF45AE44AD43AC42126F
:020AA0000081D3
:010AA2002231
:100F050075BC80E4F534F533F532F53175BB034333
:100F15009104AF34AE33AD32AC31EC4D4E4F60F28F
:100F2500C2AF5391FBAF34AE33AD32AC31EC1203EB
:100F3500957B337A0379187845120176E4FBFA79C3
:100F450080784512027FE4FBFA797A784412027FB1
:100F5500E4FBFA7980784312027F8F498E488D47EA
:100F65008C46AB49AA48A947A8467F337E337D53B3
:100F75007C40120081C004C005C006C007E4FFFE26
:100F85007DF07C41AB49AA48A947A846120176D015
:100F950003D002D001D00012027F8F418E408D3FD9
:100FA5008C3E7FF77ECC7D127C3AAB41AA40A93FAF
:100FB500A83E120176AB41AA40A93FA83E12017690
:100FC500C004C005C006C0077F647E067DEA7C3D7F
:100FD500AB41AA40A93FA83E120176E4FBFA79800D
:100FE500783F120085D003D002D001D000120081D5
:100FF500C004C005C006C0077F0D7E717D147C400E
:10100500AB41AA40A93FA83E120176A804A905AAAA
:1010150006AB077F8F7EC27D977C42120081D0038D
:10102500D002D001D00012027F8F458E448D438CB3
:10103500427F667E667DE67C3FAB45AA44A943A810
:1010450042120176E4FBFAF978421200858F458E4B
:07105500448D438C42D2AF31
:01105C002271
:05159000121595D28444
:101595000000000000000000000000000000000046
:1015A5000000000000000000000000000000000036
:1015B5000000000000000000000000000000000026
:0215C500002202
:0A171C00D285121590C285021595C2
:0A172600C285121590D285021595B8
:0B15EC0012173012171C7FA012162EE1
:1015F700D28412159530850BE53EC394FA50040545
:081607003E80F2C28402159539
:0A173000D285121595D2840215959A
:10162E00E4FEEF25E0FFC284121595928512159007
:0E163E000EBE08EEC284121595D285021595D7
:1015C700C284121595D285121595E4FED2841215A0
:1015D70095EF25E0FDA285E4334DFFC284121595F2
:0415E7000EBE08E844
:0115EB0022DD
:1016B200AC071215ECAF0412162E1215F7AF051275
:0816C200162E1215F70217267F
:02160F00AD0725
:101611001215ECAF0512162E1215F712171C7FA129
:0C16210012162E1215F71215C71217260C
:01162D00229A
:10075100EFD3940240037FFF22740F2F2FF8E6207E
:10076100E5F4C2AFE64430F6D2AFAE0CEEC39F5013
:10077100210E74142EF8E6F908E618BE020274FF81
:10078100FDED69600909E71919F7090980F31616E2
:1007910080DAEED39F400405810581EED39F40228C
:1007A10074142EF808E6F9EEB50C02A981180606B4
:1007B100E6FDED6960091919E70909F71980F31ECA
:1007C10080D9EF2414F8E604F8EF2F049017419331
:0907D100F608EF2F93F67F0022D9
:1007DA00EFD3940240037FFF22EF23240FF8C2AF26
:1007EA00E630E50530E002D2E4D2E2C6D2AF7F00BD
:0707FA0030E2010F02062EA0
:100801008FF0E4FFFEE50C23240EF8C2A930F70DAA
:100811007F08E6600B2DF660325030800730F1061C
:10082100EDF660277E020830F010C2AFE610E72532
:100831000E30E20CD2AF7F048014C2AFE610E71590
:1008410054EC4EF6D2AFD2A902065A7F0808EF4403
:0F08510083F4C2AF56C6D2AFD2A954804FFF2254
:10007E00020408E86480F8E933E83360110460F0A4
:10008E00ED33EC337009E8FCE9FDEAFEEBFF2204E8
:10009E0060DED3EB9FEA9EE99DE8C2E78CF0C2F7E3
:1000AE0095F0400CE8CCF8E9CDF9EACEFAEBCFFBAF
:1000BE001203D385D0F05804700320D5B3E8047032
:1000CE00075002B2D502041292D5EC0460F7E4CCCC
:1000DE00C0E0C398F8603B94186008400DD0E0FB78
:1000EE000203EAE4FBFAC9FC8028E830E406E4C91E
:1000FE00FBE4CAFCE830E305E4C9CACBFCE85407CC
:10010E006010F8C3E913F9EA13FAEB13FBEC13FCD6
:10011E00D8F130F52FC3E49CFCEF9BFFEE9AFEED79
:10012E0099FDD0E0FBEF4E4D4C701222DB03020422
:10013E000FEC2CFCEF33FFEE33FEED33FDED30E72D
:10014E00EB0203EAEF2BFFEE3AFEED39FDD0E0FBBA
:10015E0050130BBB0003020412ED13FDEE13FEEF62
:08016E0013FFEC13FC0203EA8D
:10017600EC4D6011E8497017ED33EC3304600DE483
:10018600FCFFFEFD22E933E8330470F8020408128E
:1001960003D358046009E4CC248150062850090290
:1001A600041228400302040FC0E0EB4A7044B980F1
:1001B60006D0E0FB0203FEEF4E701CBD8008EBFF8D
:1001C600EAFEE9FD80EBE98DF0A4FEE5F002025FB0
:1001D600E9CDF9EAFEEBFFEF89F0A4FCE5F0CE8964
:1001E600F0A42EFFE435F0CD89F0A42DFEE435F021
:1001F6008067EF4E7005BD80D780C3EF8BF0A4AC4F
:10020600F0EE8BF0A42CFCE435F0F8EF8AF0A42C89
:10021600E5F038FCE433CB8DF0A42CFCE5F03BF89C
:10022600EE8AF0A42CFCE5F038F8E433CF89F0A48C
:100236002CFCE5F038CF3400CE89F0A42FFFE5F092
:100246003EFEE433C98DF0A42EFEE5F039CD8AF0EA
:10025600A42FFFE5F03EFEE43DFD33D0E0FB500762
:100266000BBB000F020412EC2CFCEF33FFEE33FE47
:06027600ED33FD0203EA76
:10027C00020412EC5D046005E859047003020408E2
:10028C001203D3580460F6EC4860F2EC7004FDFEE7
:10029C00FF22C860DB2481C85009C3986002500655
:1002AC0002040F9850CAF582E9294B4A7005AB82BB
:1002BC000203FE75F0007C1A7880C3EF9BEE9AED7A
:1002CC0099400DC3EF9BFFEE9AFEED99FDE842F0CD
:1002DC00DC23ACF0D0E0FFD0E0FED0E0FDAB822020
:1002EC00E7101BEB60BAEC2CFCEF33FFEE33FEEDAA
:1002FC0033FD0203EAE803F830E705C0F075F000BF
:10030C00EF2FFFEE33FEED33FD40B830E7C280AA8D
:10031C0074F8CC6480CCC86480C8F58204604FC388
:10032C00EB9FF5F0EA9E42F0E99D42F0E89C45F027
:10033C00603C501DE5825FFFE582D313CB5BCBF4B1
:10034C002B5582FB50280ABA002409B900200880DA
:10035C001DE5825BFBE582D313CF5FCFF4C3132F74
:10036C005582FF50090EBE00050DBD00010CC3EBFC
:10037C009FF5F0EA9E42F0E99D42F0E89C45F06062
:09038C0007CC4820E701B3EC2284
:1003950075F020800E75F010800575F0087D007EE3
:1003A500007F003392D530D503120536EC3340106B
:1003B500EF33FFEE33FEED33FDEC33FCD5F0ED22EC
:0E03C500E5F0247EA2D513CC92E7CDCEFF2228
:0D170F00ED33EC3360065004EC6480FC22E6
:101192008F4C8E4B8D4A8C49E4FFFE7D807C3FABA9
:1011A2004CAA4BA94AA84912031C7009AF4CAE4B7A
:1011B200AD4AAC4922AF4CAE4BAD4AAC4912041D0C
:1011C200FBAF50AE4FAD4EAC4D12041DFFBF010838
:1011D200E4FFFE7D807C3F22EF64046022EB640426
:1011E200601DBB0127E4FFFEFDFCAB50AA4FA94ED8
:1011F200A84D12031C60084006E4FFFEFDFC2274A9
:10120200FFF550F54FF54EF54D0212A0E4F551F5FC
:1012120052FFFEFDFCAB4CAA4BA94AA84912031C83
:10122200504BAF50AE4FAD4EAC4D1204488E518F65
:1012320052AC51AD52EC12039AC8ECC8C9EDC9CAFE
:10124200EECACBEFCBAF50AE4FAD4EAC4D120081DC
:10125200E4FBFAF9F812031C70A5AF4CAE4BAD4A91
:10126200AC491204378F4C8E4B8D4A8C49AF4CAE31
:101272004BAD4AAC49121091AB50AA4FA94EA84DA2
:101282001201761212E18F508E4F8D4E8C4DE55227
:1012920030E00B1204378F508E4F8D4E8C4DAF5075
:0712A200AE4FAD4EAC4D2232
:1003D300E9D2E7C933E833F892D5EDD2E7CD33EC70
:0703E30033FC5002B2D522E9
:1003EA00EC30E7100FBF000C0EBE00080DBD000474
:1003FA000BEB6014A2D5EB13FCED92E7FD2274FF20
:10040A00FCFDFEFF22E480F8A2D574FF13FC7D8078
:03041A00E480EF8C
:10041D00ED33EC33601004700FED547F70057402F2
:0A042D0092E0227404220422E4226B
:10043700ED33EC33600A047003BD8004ECB2E7FCD3
:010447002292
:10044800EDD2E7CD33EC3392D524814006E4FFFEAC
:10045800FDFC22FCE4CFCECDCC24E0501174FF800B
:10046800EDC3CC13CCCD13CDCE13CECF13CF0470A8
:07047800F030D5DE0205366D
:1012A90033DA929E35B16011377FE5FE39218489A1
:1012B9003AAEC3FF3C1D955B3D6358473E75FDF053
:1012C9003F3172183F800000C2D50204120204089F
:1012D900BD80FA50F302040FED33EC330460F17B67
:1012E9003B7AAA79B8783F120176ED33EC3392D57F
:1012F900247B5011A2D570DB500BED44802404509F
:1013090004A2D580CEEFFBEEFAEDF9ECF812044811
:10131900EFF582F404FC12039F120085C08290123B
:10132900A9740912048EED33CC33D0F092D525F08F
:0A133900A2D57001C313CC13FD22EE
:10105D003E9248DA3ECCCCCD3F2AAAAB40000000F0
:10106D003F8000003F9837F03FB504F33FD744FC75
:10107D003E3172173EB172173F0515913EDE5BD9B9
:10108D00D2018002C201EDD2E7F8CD33EC3304700A
:10109D000BBD800592D502041202040840FBD31447
:1010AD0060F2F5F07C3FEE7A00C39496C8948B40C5
:1010BD00230AC89469C8941A401A0AC89468C89437
:1010CD001F40110AC8945AC89425400805F07A00AB
:1010DD00CDC2E7CDC0F08C538D548E558F56EA237B
:1010ED0023C0E0246DF582E43410F583120554120B
:1010FD000085ECC0E0EDC0E0EEC0E0EFC0E0120511
:10110D0044A853A954AA55AB56120081D0E0FBD088
:10111D00E0FAD0E0F9D0E0B2E7F812027F8C538DFF
:10112D00548E558F5690105D740312047FA853A9E9
:10113D0054AA55AB56120176D0E0600F2479F58292
:10114D00E43410F5831205541200858C538D548EA2
:10115D00558F56D0E0C3947FFDE49400FC12039AA2
:10116D007B187A727931783F120176A853A954AA67
:10117D0055AB5612008530010B7BD97A5B79DE7841
:05118D003E1201762274
:10047F00C0E0EFFBEEFAEDF9ECF8120176D0E0F503
:10048F00F0EFFBEEFAEDF9ECF8120544A3A3A3A3EA
:10049F00E8C0E0E9C0E0EAC0E0EBC0E0C0F0120164
:1004AF0076120554A3A3A3A3120085D0F0D0E0FBCE
:0D04BF00D0E0FAD0E0F9D0E0F8D5F0D4227A
:03000000021343A5
:0C134300787FE4F6D8FD75815602138A0D
:1004CC00BB010689828A83F0225002F722BBFE010F
:0204DC00F32209
:1004DE00F8BB010DE58229F582E5833AF583E8F054
:1004EE00225006E92582C8F622BBFE05E92582C800
:0204FE00F222E8
:10050000C2D5EC30E709B2D5E4C39DFDE49CFCEE16
:1005100030E715B2D5E4C39FFFE49EFE12058AC3FF
:10052000E49DFDE49CFC800312058A30D507C3E4FA
:060530009FFFE49EFE2285
:0E053600C3E49FFFE49EFEE49DFDE49CFC22D6
:10054400E493FC740193FD740293FE740393FF22FD
:10055400E493F8740193F9740293FA740393FB22FD
:10056400D083D082F8E4937012740193700DA3A326
:1005740093F8740193F5828883E47374029368603A
:06058400EFA3A3A380DF3A
:10134F00020714E493A3F8E493A34003F68001F299
:10135F0008DFF48029E493A3F85407240CC8C3339F
:10136F00C4540F4420C8834004F456800146F6DF6E
:10137F00E4800B010204081020408090169AE47E4E
:10138F00019360BCA3FF543F30E509541FFEE49363
:10139F00A360010ECF54C025E060A840B8E493A32A
:1013AF00FAE493A3F8E493A3C8C582C8CAC583CA55
:1013BF00F0A3C8C582C8CAC583CADFE9DEE780BE0D
:0116B1000038
:10058A00BC000BBE0029EF8DF084FFADF022E4CC55
:10059A00F875F008EF2FFFEE33FEEC33FCEE9DEC1E
:1005AA00984005FCEE9DFE0FD5F0E9E4CEFD22ED64
:1005BA00F8F5F0EE8420D21CFEADF075F008EF2FAE
:1005CA00FFED33FD4007985006D5F0F222C398FD9F
:0505DA000FD5F0EA223C
:00000001FF
